{
  "contractName": "Daugiacontract",
  "abi": [
    {
      "inputs": [
        {
          "internalType": "uint256",
          "name": "_biddingtime",
          "type": "uint256"
        },
        {
          "internalType": "address payable",
          "name": "_beneficiary",
          "type": "address"
        }
      ],
      "stateMutability": "nonpayable",
      "type": "constructor"
    },
    {
      "anonymous": false,
      "inputs": [
        {
          "indexed": false,
          "internalType": "address",
          "name": "winner",
          "type": "address"
        },
        {
          "indexed": false,
          "internalType": "uint256",
          "name": "bid",
          "type": "uint256"
        }
      ],
      "name": "sessionWinner",
      "type": "event"
    },
    {
      "anonymous": false,
      "inputs": [
        {
          "indexed": false,
          "internalType": "address",
          "name": "bidder",
          "type": "address"
        },
        {
          "indexed": false,
          "internalType": "uint256",
          "name": "bid",
          "type": "uint256"
        }
      ],
      "name": "updateHighestBid",
      "type": "event"
    },
    {
      "inputs": [],
      "name": "beneficiary",
      "outputs": [
        {
          "internalType": "address payable",
          "name": "",
          "type": "address"
        }
      ],
      "stateMutability": "view",
      "type": "function"
    },
    {
      "inputs": [],
      "name": "ended",
      "outputs": [
        {
          "internalType": "bool",
          "name": "",
          "type": "bool"
        }
      ],
      "stateMutability": "view",
      "type": "function"
    },
    {
      "inputs": [],
      "name": "endtime",
      "outputs": [
        {
          "internalType": "uint256",
          "name": "",
          "type": "uint256"
        }
      ],
      "stateMutability": "view",
      "type": "function"
    },
    {
      "inputs": [],
      "name": "highestBid",
      "outputs": [
        {
          "internalType": "uint256",
          "name": "",
          "type": "uint256"
        }
      ],
      "stateMutability": "view",
      "type": "function"
    },
    {
      "inputs": [],
      "name": "highestBidder",
      "outputs": [
        {
          "internalType": "address",
          "name": "",
          "type": "address"
        }
      ],
      "stateMutability": "view",
      "type": "function"
    },
    {
      "inputs": [
        {
          "internalType": "address",
          "name": "",
          "type": "address"
        }
      ],
      "name": "pendingReturns",
      "outputs": [
        {
          "internalType": "uint256",
          "name": "",
          "type": "uint256"
        }
      ],
      "stateMutability": "view",
      "type": "function"
    },
    {
      "inputs": [],
      "name": "bid",
      "outputs": [],
      "stateMutability": "payable",
      "type": "function"
    },
    {
      "inputs": [],
      "name": "withdraw",
      "outputs": [
        {
          "internalType": "bool",
          "name": "",
          "type": "bool"
        }
      ],
      "stateMutability": "nonpayable",
      "type": "function"
    },
    {
      "inputs": [],
      "name": "sessionEnd",
      "outputs": [],
      "stateMutability": "nonpayable",
      "type": "function"
    }
  ],
  "bytecode": "0x60806040525f600360146101000a81548160ff0219169083151502179055503480156200002a575f80fd5b5060405162000cd238038062000cd2833981810160405281019062000050919062000148565b805f806101000a81548173ffffffffffffffffffffffffffffffffffffffff021916908373ffffffffffffffffffffffffffffffffffffffff16021790555081426200009d9190620001ba565b6001819055505050620001f4565b5f80fd5b5f819050919050565b620000c381620000af565b8114620000ce575f80fd5b50565b5f81519050620000e181620000b8565b92915050565b5f73ffffffffffffffffffffffffffffffffffffffff82169050919050565b5f6200011282620000e7565b9050919050565b620001248162000106565b81146200012f575f80fd5b50565b5f81519050620001428162000119565b92915050565b5f8060408385031215620001615762000160620000ab565b5b5f6200017085828601620000d1565b9250506020620001838582860162000132565b9150509250929050565b7f4e487b71000000000000000000000000000000000000000000000000000000005f52601160045260245ffd5b5f620001c682620000af565b9150620001d383620000af565b9250828201905080821115620001ee57620001ed6200018d565b5b92915050565b610ad080620002025f395ff3fe608060405260043610610085575f3560e01c806338af3eed1161005857806338af3eed146101235780633ccfd60b1461014d5780636ca9ec471461017757806391f901571461018d578063d57bde79146101b757610085565b806312fa6feb146100895780631998aeef146100b357806326b387bb146100bd5780632ca126f8146100f9575b5f80fd5b348015610094575f80fd5b5061009d6101e1565b6040516100aa9190610709565b60405180910390f35b6100bb6101f4565b005b3480156100c8575f80fd5b506100e360048036038101906100de9190610780565b6103fa565b6040516100f091906107c3565b60405180910390f35b348015610104575f80fd5b5061010d61040f565b60405161011a91906107c3565b60405180910390f35b34801561012e575f80fd5b50610137610415565b60405161014491906107fc565b60405180910390f35b348015610158575f80fd5b50610161610438565b60405161016e9190610709565b60405180910390f35b348015610182575f80fd5b5061018b610551565b005b348015610198575f80fd5b506101a16106c4565b6040516101ae9190610824565b60405180910390f35b3480156101c2575f80fd5b506101cb6106e9565b6040516101d891906107c3565b60405180910390f35b600360149054906101000a900460ff1681565b600154421115610239576040517f08c379a000000000000000000000000000000000000000000000000000000000815260040161023090610897565b60405180910390fd5b600254341161027d576040517f08c379a000000000000000000000000000000000000000000000000000000000815260040161027490610925565b60405180910390fd5b5f600254146103555760025460045f60035f9054906101000a900473ffffffffffffffffffffffffffffffffffffffff1673ffffffffffffffffffffffffffffffffffffffff1673ffffffffffffffffffffffffffffffffffffffff1681526020019081526020015f20546102f29190610970565b60045f60035f9054906101000a900473ffffffffffffffffffffffffffffffffffffffff1673ffffffffffffffffffffffffffffffffffffffff1673ffffffffffffffffffffffffffffffffffffffff1681526020019081526020015f20819055505b3360035f6101000a81548173ffffffffffffffffffffffffffffffffffffffff021916908373ffffffffffffffffffffffffffffffffffffffff160217905550346002819055507f21499369afcf3f472eb9d9b90e70c8ae329fad4ebf9ec9b77a725e9be8c011a260035f9054906101000a900473ffffffffffffffffffffffffffffffffffffffff166002546040516103f09291906109a3565b60405180910390a1565b6004602052805f5260405f205f915090505481565b60015481565b5f8054906101000a900473ffffffffffffffffffffffffffffffffffffffff1681565b5f8060045f3373ffffffffffffffffffffffffffffffffffffffff1673ffffffffffffffffffffffffffffffffffffffff1681526020019081526020015f205490505f811115610548575f60045f3373ffffffffffffffffffffffffffffffffffffffff1673ffffffffffffffffffffffffffffffffffffffff1681526020019081526020015f20819055503373ffffffffffffffffffffffffffffffffffffffff166108fc8290811502906040515f60405180830381858888f19350505050610547578060045f3373ffffffffffffffffffffffffffffffffffffffff1673ffffffffffffffffffffffffffffffffffffffff1681526020019081526020015f20819055505f91505061054e565b5b60019150505b90565b600360149054906101000a900460ff16156105a1576040517f08c379a000000000000000000000000000000000000000000000000000000000815260040161059890610a14565b60405180910390fd5b6001544210156105e6576040517f08c379a00000000000000000000000000000000000000000000000000000000081526004016105dd90610a7c565b60405180910390fd5b6001600360146101000a81548160ff0219169083151502179055507f835d9fc8de16c7933ea69c9f9ea88351b3f9543ac2a209133a4b536537b896f160035f9054906101000a900473ffffffffffffffffffffffffffffffffffffffff166002546040516106559291906109a3565b60405180910390a15f8054906101000a900473ffffffffffffffffffffffffffffffffffffffff1673ffffffffffffffffffffffffffffffffffffffff166108fc60025490811502906040515f60405180830381858888f193505050501580156106c1573d5f803e3d5ffd5b50565b60035f9054906101000a900473ffffffffffffffffffffffffffffffffffffffff1681565b60025481565b5f8115159050919050565b610703816106ef565b82525050565b5f60208201905061071c5f8301846106fa565b92915050565b5f80fd5b5f73ffffffffffffffffffffffffffffffffffffffff82169050919050565b5f61074f82610726565b9050919050565b61075f81610745565b8114610769575f80fd5b50565b5f8135905061077a81610756565b92915050565b5f6020828403121561079557610794610722565b5b5f6107a28482850161076c565b91505092915050565b5f819050919050565b6107bd816107ab565b82525050565b5f6020820190506107d65f8301846107b4565b92915050565b5f6107e682610726565b9050919050565b6107f6816107dc565b82525050565b5f60208201905061080f5f8301846107ed565b92915050565b61081e81610745565b82525050565b5f6020820190506108375f830184610815565b92915050565b5f82825260208201905092915050565b7f706869656e206461206b657420746875630000000000000000000000000000005f82015250565b5f61088160118361083d565b915061088c8261084d565b602082019050919050565b5f6020820190508181035f8301526108ae81610875565b9050919050565b7f476961206375612062616e207468617020686f6e20676961206869656e2074615f8201527f6900000000000000000000000000000000000000000000000000000000000000602082015250565b5f61090f60218361083d565b915061091a826108b5565b604082019050919050565b5f6020820190508181035f83015261093c81610903565b9050919050565b7f4e487b71000000000000000000000000000000000000000000000000000000005f52601160045260245ffd5b5f61097a826107ab565b9150610985836107ab565b925082820190508082111561099d5761099c610943565b5b92915050565b5f6040820190506109b65f830185610815565b6109c360208301846107b4565b9392505050565b7f506869656e206461206b657420746875630000000000000000000000000000005f82015250565b5f6109fe60118361083d565b9150610a09826109ca565b602082019050919050565b5f6020820190508181035f830152610a2b816109f2565b9050919050565b7f506869656e2063687561206b65742074687563000000000000000000000000005f82015250565b5f610a6660138361083d565b9150610a7182610a32565b602082019050919050565b5f6020820190508181035f830152610a9381610a5a565b905091905056fea2646970667358221220800cb45445ebaa0e2e1952ba85ba9e0382af50a16969d72fce74c09495f85d5a64736f6c63430008150033",
  "immutableReferences": {},
  "source": "// SPDX-License-Identifier: MIT\npragma solidity >=0.7.0 <0.9.0;\n\ncontract Daugiacontract {\n\n    address payable public beneficiary;\n    uint public endtime;\n    uint public highestBid;\n    address public highestBidder;\n    bool public ended= false;\n\n    mapping(address=> uint) public pendingReturns;\n\n    event updateHighestBid(address bidder , uint bid);\n    event sessionWinner(address winner, uint bid);\n\n    constructor (uint _biddingtime, address payable _beneficiary){\n        beneficiary= _beneficiary;\n        endtime= block.timestamp + _biddingtime;\n    }\n\n    function bid() public payable {\n        if(block.timestamp> endtime){\n            revert(\"phien da ket thuc\");\n        }\n        if(msg.value <= highestBid){\n            revert(\"Gia cua ban thap hon gia hien tai\");\n        }\n        if(highestBid !=0){\n            pendingReturns[highestBidder] = pendingReturns[highestBidder] + highestBid;\n        }\n        highestBidder=msg.sender;\n        highestBid=msg.value;\n        emit updateHighestBid(highestBidder, highestBid);\n    }\n\n    function withdraw() public returns(bool){\n        uint amount = pendingReturns[msg.sender];\n        if(amount >0){\n            pendingReturns[msg.sender]=0;\n            if(!payable(msg.sender).send(amount)){\n                pendingReturns[msg.sender]=amount;\n                return false;\n            }\n        }\n        return true;\n    }\n\n    function sessionEnd() public {\n        if(ended){\n            revert(\"Phien da ket thuc\");\n        }\n        if(block.timestamp < endtime){\n            revert(\"Phien chua ket thuc\");\n        }\n        ended = true;\n        emit sessionWinner(highestBidder, highestBid);\n        beneficiary.transfer(highestBid);\n    }\n\n}",
  "sourcePath": "D:\\Nam 4 HK 2\\Thuc tap winnerfarm\\w3\\Test-w3-be\\contracts\\Daugiacontract.sol",
  "compiler": {
    "name": "solc",
    "version": "0.8.21+commit.d9974bed.Emscripten.clang"
  },
  "schemaVersion": "3.4.16",
  "updatedAt": "2024-03-17T08:36:10.204Z",
  "devdoc": {
    "kind": "dev",
    "methods": {},
    "version": 1
  },
  "userdoc": {
    "kind": "user",
    "methods": {},
    "version": 1
  }
}